S01100005556425F6D657465722E73726563AA
S11300000C94DB000C9485040C94F8000C94F80018
S11300100C946D040C94F8000C94F8000C94F80003
S11300200C94F8000C94F8000C94F8000C94F8006C
S11300300C94F8000C944D040C94F8000C94F80003
S11300400C94F8000C94F8000C94F8000C94F8004C
S11300500C94F8000C949D040C94F8000C94F80093
S11300600C94F8000C94F8000C94F8000C94F8002C
S11300700C94F8000C94F8000C94F8000C94F8001C
S11300800C94F8000C94F8000C94F8000C94F8000C
S11300900C94F8000C94F8000C94F8000C94F800FC
S11300A00C94F8000C94F8000C94F8000C94F800EC
S11300B00C94F8006E616E00696E660000407A1060
S11300C0F35A00A0724E18090010A5D4E80000E805
S11300D07648170000E40B54020000CA9A3B000063
S11300E000E1F505000080969800000040420F00F2
S11300F00000A08601000000102700000000E803B3
S1130100000000006400000000000A00000000007D
S11301100100000000002C76D888DC674F0823DF3C
S1130120C1DFAE59E1B1B796E5E3E453C63AE6510F
S1130130997696E8E6C28426EB898C9B62ED407C36
S11301406FFCEFBC9C9F40F2BAA56FA5F490055AD2
S11301502AF75C936B6CF9676DC11BFCE0E40D47F7
S1130160FEF520E6B500D0ED902E0300943577051A
S11301700080841E080000204E0A000000C80C33D2
S11301803333330F986E12831141EF8D2114893B61
S1130190E65516CFFEE6DB18D1844B381BF77C1DE1
S11301A0901DA4BBE424203284725E228100C9F134
S11301B024ECA1E53D2711241FBECFEFD8E0DEBF1C
S11301C0CDBF11E0A0E0B1E0EAE5F2E202C00590A3
S11301D00D92A230B107D9F721E0A2E0B1E001C04D
S11301E01D92AA30B207E1F70E9431080C942B113A
S11301F00C940000CF93DF93CDB7DEB78EE790E089
S11302002FE7FC01208384E690E024E630E0F90146
S113021020812E7FFC0120838CE790E027ECFC01F9
S113022020838AE790E02FE8FC0120830000DF911F
S1130230CF910895CF93DF93CDB7DEB78AE790E0EF
S11302402AE730E0F90120812064FC0120830000CA
S1130250DF91CF910895CF93DF93CDB7DEB788E7D1
S113026090E0FC0180819181DF91CF910895CF923C
S1130270DF92EF92FF92CF93DF93CDB7DEB72D9746
S11302800FB6F894DEBF0FBECDBF9D878C878DEC73
S11302909CECACE8BFE389839A83AB83BC838FEF88
S11302A093E09E838D8383E08F838C859D85CC0131
S11302B0A0E0B0E0BC01CD010E94940ADC01CB01B6
S11302C029813A814B815C81BC01CD010E94460B9E
S11302D0DC01CB016C017D018D819E81CC01A0E00C
S11302E0B0E0BC01CD010E94940ADC01CB019C0169
S11302F0AD01C701B6010E94220ADC01CB016C01E9
S11303007D018F81882F90E0092E000CAA0BBB0B76
S1130310BC01CD010E94960ADC01CB019C01AD0118
S1130320C701B6010E94460BDC01CB01888799877F
S1130330AA87BB8788859985AA85BB85BC01CD0121
S11303402D960FB6F894DEBF0FBECDBFDF91CF91CF
S1130350FF90EF90DF90CF9008951F93CF93DF939A
S113036000D000D000D0CDB7DEB70E942B019A8315
S1130370898389819A810E943701DC01CB018B83B7
S11303809C83AD83BE8311E020E030E040E350E481
S11303906B817C818D819E810E941D0A18160CF44C
S11303A010E081E08127882F90E0809303010E9470
S11303B0E401000026960FB6F894DEBF0FBECDBF51
S11303C0DF91CF911F910895CF93DF93CDB7DEB71F
S11303D08AE790E02AE730E0F90120812F77FC01D9
S11303E020838EE790E02FEFFC01208384E690E0E9
S11303F024E630E0F90120812160FC012083000023
S1130400DF91CF910895CF93DF93CDB7DEB787E225
S113041090E027E230E0F9012081277FFC0120836E
S113042088E290E028E230E0F90120812860FC01B4
S113043020838CE690E02CE630E0F90120812260F4
S1130440FC0120830000DF91CF910895CF93DF93C7
S1130450CDB7DEB760E084E70E943E0380E00E94EF
S1130460DA0382E00E94DA030E94350460E084E744
S11304700E943E0386E00E94DA0380E20E94DA03CF
S11304800E94350460E084E70E943E0388E00E94F5
S1130490DA0380E40E94DA030E94350460E084E712
S11304A00E943E0380E00E94DA0383E40E94DA03A0
S11304B00E94350481E0DF91CF910895CF93DF93BB
S11304C0CDB7DEB760E084E70E943E0380E00E947F
S11304D0DA0383EC0E94DA030E9435040000DF9102
S11304E0CF910895CF93DF9300D000D0CDB7DEB77E
S11304F019821A821C821B8260E084E70E943E03F8
S113050083E00E94DA0361E084E70E948C030E9486
S1130510070489830E941E048A838981882F90E0BE
S11305209C838B838A81882F90E0982F88279C0155
S11305308B819C81822B932B9C838B830E9435041B
S11305408B819C8190930601809305018B819C8112
S11305500F900F900F900F90DF91CF910895CF934C
S1130560DF9300D000D000D0CDB7DEB79E838D835B
S11305708D819E819C0140E050E084EF92E0DC019B
S11305800E94610FDC01CB01072E7AE0B695A79596
S1130590979587957A95D1F7702D89839A83AB8344
S11305A0BC8389819A8126960FB6F894DEBF0FBE6C
S11305B0CDBFDF91CF910895CF93DF93CDB7DEB751
S11305C0109204010E9472021092000188E690E0E9
S11305D028E630E0F90120812D7FFC0120838DE3A2
S11305E090E02DE330E0F90120812160FC012083BB
S11305F00000DF91CF910895CF93DF93CDB7DEB79D
S113060029970FB6F894DEBF0FBECDBF89EB90E0FB
S113061029EB30E0F90120812C7FFC012083198231
S113062080E09AE6A8E1B0E08A839B83AC83BD8333
S113063080E095E3ACE0B0E08E839F83A887B98720
S11306408A819B81AC81BD812E813F8148855985FA
S1130650BC01CD010E94300FDA01C901898388EB06
S113066090E02981FC012083000029960FB6F894BC
S1130670DEBF0FBECDBFDF91CF910895CF93DF933F
S113068000D01F92CDB7DEB78A836B838CEB90E0EA
S113069024EAFC01208300008CEB90E0FC018081C3
S11306A08823D4F789EB90E0FC018081887F8983DB
S11306B08981883011F080E029C08BEB90E02A8199
S11306C0222F30E0220F331F322F2B81232BFC01EA
S11306D020838CEB90E024E8FC01208300008CEB69
S11306E090E0FC0180818823D4F789EB90E0FC0141
S11306F08081887F89838981883111F481E006C0F3
S11307008981803211F482E001C083E00F900F9060
S11307100F90DF91CF910895CF93DF9300D01F9274
S1130720CDB7DEB78A836B838CEB90E024EAFC01BF
S1130730208300008CEB90E0FC0180818823D4F7B7
S113074089EB90E0FC018081887F898389818031F5
S113075011F080E029C08BEB90E02A81222F30E059
S1130760220F331F322F2B81232BFC0120838CEB90
S113077090E024E8FC01208300008CEB90E0FC0175
S113078080818823D4F789EB90E0FC018081887F05
S113079089838981803411F481E006C08981883499
S11307A011F482E001C083E00F900F900F90DF916D
S11307B0CF910895CF93DF9300D0CDB7DEB78A836E
S11307C08BEB90E02A81FC0120838CEB90E024E801
S11307D0FC01208300008CEB90E0FC0180818823E5
S11307E0D4F789EB90E0FC018081887F898389813B
S11307F0883211F480E006C08981803311F481E0ED
S113080001C082E00F900F90DF91CF910895CF93B4
S1130810DF93CDB7DEB78CEB90E024ECFC012083B2
S113082000008CEB90E0FC0180818823D4F78BEBF3
S113083090E0FC018081DF91CF910895CF93DF9305
S1130840CDB7DEB78CEB90E024E8FC0120830000F8
S11308508CEB90E0FC0180818823D4F78BEB90E053
S1130860FC018081DF91CF910895CF93DF93CDB7C1
S1130870DEB78CEB90E024E9FC01208300008CEBD4
S113088090E0FC018081882F90E080719927892B6A
S1130890B1F70000DF91CF9108951F920F9200905D
S11308A05F000F9211248F939F93CF93DF93CDB763
S11308B0DEB7809108019091090101969093090196
S11308C0809308010000DF91CF919F918F910F9049
S11308D000925F000F901F9018951F920F92009046
S11308E05F000F9211248F93CF93DF93CDB7DEB7C0
S11308F081E0809304010000DF91CF918F910F90EC
S113090000925F000F901F9018951F920F92009015
S11309105F000F9211248F93CF93DF93CDB7DEB78F
S113092081E0809307010000DF91CF918F910F90B8
S113093000925F000F901F9018951F920F920090E5
S11309405F000F9211248F93CF93DF93CDB7DEB75F
S113095081E0809302010000DF91CF918F910F908D
S113096000925F000F901F901895CF93DF93CDB73F
S1130970DEB784E290E024E230E0F90120812F61C7
S1130980FC0120838AE290E02AE230E0F901208130
S1130990226EFC01208387E290E027E230E0F90137
S11309A020812D60FC01208385E290E025E230E087
S11309B0F90120812D7FFC01208385E290E025E26E
S11309C030E0F9012081277FFC01208385E290E05B
S11309D025E230E0F90120812F7EFC01208385E2AD
S11309E090E025E230E0F90120812B7FFC01208397
S11309F08BE290E02BE230E0F90120812F7DFC01B5
S1130A0020838BE290E02BE230E0F90120812F7704
S1130A10FC01208385E290E025E230E0F9012081A9
S1130A202E7FFC0120838BE290E02BE230E0F90181
S1130A3020812F7BFC01208388E290E028E230E0D3
S1130A40F90120812E7FFC01208388E290E028E2D6
S1130A5030E0F9012081277FFC0120838BE290E0C4
S1130A602BE230E0F90120812D7FFC01208388E214
S1130A7090E028E230E0F90120812B7FFC01208303
S1130A800000DF91CF910895CF93DF93CDB7DEB708
S1130A9028970FB6F894DEBF0FBECDBF9A83898323
S1130AA07C836B835E834D8338872F8389819A810E
S1130AB0883E934020F087EE93E09A83898389816E
S1130AC09A8196958795969587959C01ABE7B4E1B5
S1130AD00E94520F96958795282F8B819C81FC014B
S1130AE020838B819C81FC018081882F90E04CE9DC
S1130AF0BC0146039001479F300D112489819A81DE
S1130B00820F931F9A83898389819A819C01ADEC1A
S1130B10BCEC0E94520F969587959695879596956D
S1130B208795282F8D819E81FC0120838D819E8154
S1130B30FC018081882F90E046EFBC0146039001C0
S1130B40479F300D112489819A81820F931F9A83C4
S1130B50898329818F819885FC0120830000289650
S1130B600FB6F894DEBF0FBECDBFDF91CF910895CD
S1130B70CF93DF9300D000D01F92CDB7DEB79D8313
S1130B808C8319821A821B829E012D5F3F4FAE0116
S1130B904E5F5F4F8C819D81BE016F5F7F4F0E94CE
S1130BA0440589810E94F50560E472E48FE090E0D9
S1130BB00E94CD098A810E94F50560E472E48FE009
S1130BC090E00E94CD098B810E94F5058B810E94E3
S1130BD084068B810E94130700000F900F900F90E2
S1130BE00F900F90DF91CF910895CF93DF9300D0B2
S1130BF000D01F92CDB7DEB78D838D818A3010F07F
S1130C0089E08D838D81817089838D81882F90E027
S1130C1082709927959587958A838D81882F90E096
S1130C208470992795958795959587958B838D8164
S1130C30882F90E088709927959587959595879545
S1130C40959587958C838981813051F485E290E074
S1130C5025E230E0F90120812260FC01208309C0F3
S1130C6085E290E025E230E0F90120812D7FFC014E
S1130C7020838A81813051F485E290E025E230E0DE
S1130C80F90120812860FC01208309C085E290E0FD
S1130C9025E230E0F9012081277FFC0120838B814C
S1130CA0813051F485E290E025E230E0F9012081C1
S1130CB02061FC01208309C085E290E025E230E058
S1130CC0F90120812F7EFC0120838C81813051F435
S1130CD085E290E025E230E0F90120812460FC0106
S1130CE0208309C085E290E025E230E0F90120810B
S1130CF02B7FFC01208300000F900F900F900F902A
S1130D000F90DF91CF910895CF93DF9300D000D05F
S1130D101F92CDB7DEB78D838D818A3010F089E0C4
S1130D208D838D81817089838D81882F90E082707D
S1130D309927959587958A838D81882F90E0847073
S1130D40992795958795959587958B838D81882F80
S1130D5090E08870992795958795959587959595B1
S1130D6087958C838981813051F48BE290E02BE26A
S1130D7030E0F90120812062FC01208309C08BE26C
S1130D8090E02BE230E0F90120812F7DFC012083EB
S1130D908A81813051F48BE290E02BE230E0F9015A
S1130DA020812068FC01208309C08BE290E02BE2C3
S1130DB030E0F90120812F77FC0120838B81813081
S1130DC051F485E290E025E230E0F90120812160D0
S1130DD0FC01208309C085E290E025E230E0F901BE
S1130DE020812E7FFC0120838C81813051F48BE2A1
S1130DF090E02BE230E0F90120812064FC012083A3
S1130E0009C08BE290E02BE230E0F90120812F7BD6
S1130E10FC01208300000F900F900F900F900F9013
S1130E20DF91CF910895CF93DF9300D000D01F922C
S1130E30CDB7DEB78D838D818A3010F089E08D8344
S1130E408D81817089838D81882F90E082709927AC
S1130E50959587958A838D81882F90E08470992752
S1130E6095958795959587958B838D81882F90E0AF
S1130E7088709927959587959595879595958795E4
S1130E808C838981813051F488E290E028E230E05B
S1130E90F90120812160FC01208309C088E290E0EF
S1130EA028E230E0F90120812E7FFC0120838A8131
S1130EB0813051F488E290E028E230E0F9012081A9
S1130EC02860FC01208309C088E290E028E230E039
S1130ED0F9012081277FFC0120838B81813051F42B
S1130EE08BE290E02BE230E0F90120812260FC01EA
S1130EF0208309C08BE290E02BE230E0F9012081ED
S1130F002D7FFC0120838C81813051F488E290E0B4
S1130F1028E230E0F90120812460FC01208309C02B
S1130F2088E290E028E230E0F90120812B7FFC0187
S1130F30208300000F900F900F900F900F90DF917F
S1130F40CF910895CF93DF93CDB7DEB784E290E0DD
S1130F5024E230E0F9012081207EFC0120838AE232
S1130F6090E02AE230E0F90120812D71FC01208318
S1130F7087E290E027E230E0F9012081227FFC0142
S1130F80208385E290E025E230E0F90120812260AF
S1130F90FC01208385E290E025E230E0F901208124
S1130FA02860FC01208385E290E025E230E0F9012D
S1130FB020812061FC01208385E290E025E230E07D
S1130FC0F90120812460FC0120838BE290E02BE274
S1130FD030E0F90120812062FC0120838BE290E063
S1130FE02BE230E0F90120812068FC01208385E2B6
S1130FF090E025E230E0F90120812160FC012083AA
S11310008BE290E02BE230E0F90120812064FC01C6
S1131010208388E290E028E230E0F9012081216019
S1131020FC01208388E290E028E230E0F90120818D
S11310302860FC0120838BE290E02BE230E0F90190
S113104020812260FC01208388E290E028E230E0E5
S1131050F90120812460FC0120830000DF91CF91FD
S11310600895CF93DF9300D0CDB7DEB78DE290E043
S11310702DE230E0F90120812160FC012083789485
S11310800E94FA000E941A0102C00E940C0A809178
S113109002018823D1F30E94AD01809103018823CA
S11310A019F40E94A90888950E9432090E948109B6
S11310B00E94B5040E94FC020E94260210920001C4
S11310C00E9403020E94A90868EE73E080E090E0A9
S11310D00E94CD090E94E7088AE992E09A838983F5
S11310E080910701813069F4109207010E945E0229
S11310F088E690E028E630E0F90120812260FC01D6
S1131100208380910401813059F7109204010E94D8
S1131110DC0268EE73E080E090E00E94CD098091EB
S11311200501909106010E94AF020E94B80560E497
S113113072E48FE090E00E94CD098EE290E02EE20E
S113114030E0F90120812E7FFC0120830E94E70812
S1131150C7CFCF93DF93CDB7DEB783E590E023E528
S113116030E0F90120812560FC01208388E690E0CD
S113117028E630E0F90120812D7FFC0120838AE2FA
S113118090E02AE230E0F90120812B7FFC012083EA
S11311908BE290E02BE230E0F90120812470FC0125
S11311A020838DE390E02DE330E0F901208121607C
S11311B0FC01208389E690E029E630E0F9012081F2
S11311C02260FC0120830000DF91CF910895CF932A
S11311D0DF931F92CDB7DEB7F8940E94A2070E9456
S11311E05E098DE390E02DE330E0F9012081216078
S11311F0FC012083789483E590E023E530E0F90155
S113120020812160FC01208385B7806685BF8F7DA6
S113121085BF898388950E94120900000F90DF9191
S1131220CF910895CF93DF93CDB7DEB783E590E0F8
S113123023E530E0F90120812E7FFC012083F8941E
S11312408DE390E02DE330E0F90120812E7FFC0155
S113125020830E9432090E94B50478940000DF9133
S1131260CF910895CF93DF93CDB7DEB782EB90E0B3
S1131270FC0110828AE290E02AE230E0F901208148
S11312802860FC01208384EB90E02FE7FC0120839D
S113129080EB90E020EB30E0F90120812362FC0137
S11312A0208381EB90E021EB30E0F901208126607E
S11312B0FC0120830000DF91CF910895CF93DF9349
S11312C0CDB7DEB781EB90E021EB30E0F90120816E
S11312D0297FFC0120838AE290E02AE230E0F901D0
S11312E02081277FFC0120838BE290E02BE230E019
S11312F0F90120812860FC0120830000DF91CF9157
S11313000895CF93DF93CDB7DEB784E890E0FC0176
S11313101182108286E390E023E0FC01208381E8BF
S113132090E022E0FC01208378948FE690E02FE6A1
S113133030E0F90120812160FC0120830000DF916D
S1131340CF910895EF92FF920F931F93CF93DF9362
S1131350CDB7DEB784E890E0FC01808191817C0107
S113136000E010E080910801909109019C0140E0A7
S113137050E08FEF9FEFDC010E94610FDC01CB0195
S11313808E0D9F1DA01FB11FBC01CD01DF91CF9118
S11313901F910F91FF90EF900895EF92FF920F939A
S11313A01F93CF93DF93CDB7DEB728970FB6F8948A
S11313B0DEBF0FBECDBF6D837E838F8398870E946F
S11313C0A209DC01CB0189839A83AB83BC8301C06E
S11313D000000E94A2097B018C0129813A814B8182
S11313E05C818D819E81AF81B885820F931FA41F7C
S11313F0B51FE816F9060A071B0750F300002896E4
S11314000FB6F894DEBF0FBECDBFDF91CF911F9111
S11314100F91FF90EF900895CF93DF93CDB7DEB790
S11314208EE290E02EE230E0F90120812B7FFC0176
S113143020830000DF91CF9108950E94D10A08F41F
S113144081E008950E94360A0C940C0B0E94050B4F
S113145058F00E94FE0A40F029F45F3F29F00C94F2
S1131460F50A51110C94400B0C94FB0A0E941D0BBD
S113147068F39923B1F3552391F3951B550BBB27BF
S1131480AA2762177307840738F09F5F5F4F220F04
S1131490331F441FAA1FA9F335D00E2E3AF0E0E8FB
S11314A032D091505040E695001CCAF72BD0FE2F45
S11314B029D0660F771F881FBB1F261737074807D9
S11314C0AB07B0E809F0BB0B802DBF01FF27935891
S11314D05F4F3AF09E3F510578F00C94F50A0C9456
S11314E0400B5F3FE4F3983ED4F386957795679578
S11314F0B795F7959F5FC9F7880F911D96958795C6
S113150097F90895E1E0660F771F881FBB1F6217E4
S113151073078407BA0720F0621B730B840BBA0BA2
S1131520EE1F88F7E0950895E89409C097FB3EF410
S113153090958095709561957F4F8F4F9F4F99231C
S1131540A9F0F92F96E9BB279395F695879577959A
S11315506795B795F111F8CFFAF4BB0F11F460FF5A
S11315601BC06F5F7F4F8F4F9F4F16C0882311F0B2
S113157096E911C0772321F09EE8872F762F05C0C6
S1131580662371F096E8862F70E060E02AF09A9561
S1131590660F771F881FDAF7880F9695879597F956
S11315A00895990F0008550FAA0BE0E8FEEF1616F0
S11315B01706E807F907C0F012161306E407F50743
S11315C098F0621B730B840B950B39F40A2661F0B7
S11315D0232B242B252B21F408950A2609F4A1405A
S11315E0A6958FEF811D811D089597F99F6780E867
S11315F070E060E008959FEF80EC089500240A9461
S11316001616170618060906089500240A941216D9
S11316101306140605060895092E0394000C11F40C
S1131620882352F0BB0F40F4BF2B11F460FF04C0B9
S11316306F5F7F4F8F4F9F4F089557FD9058440F12
S1131640551F59F05F3F71F04795880F97FB991F1D
S113165061F09F3F79F087950895121613061406DA
S1131660551FF2CF4695F1DF08C016161706180667
S1131670991FF1CF86957105610508940895E89442
S1131680BB2766277727CB0197F908950E94590B4A
S11316900C940C0B0E94FE0A38F00E94050B20F0FB
S11316A0952311F00C94F50A0C94FB0A11240C9464
S11316B0400B0E941D0B70F3959FC1F3950F50E0F2
S11316C0551F629FF001729FBB27F00DB11D639FF0
S11316D0AA27F00DB11DAA1F649F6627B00DA11D96
S11316E0661F829F2227B00DA11D621F739FB00D3C
S11316F0A11D621F839FA00D611D221F749F3327AC
S1131700A00D611D231F849F600D211D822F762F44
S11317106A2F11249F5750409AF0F1F088234AF021
S1131720EE0FFF1FBB1F661F771F881F915050408D
S1131730A9F79E3F510580F00C94F50A0C94400BD8
S11317405F3FE4F3983ED4F3869577956795B79514
S1131750F795E7959F5FC1F7FE2B880F911D96952E
S1131760879597F90895A0E1B0E0E9EBFBE00C94CC
S11317706C0F7C011B016A01FC01178216828381B4
S113178081FF44C39E012F5F3F4F3901F7019381CD
S1131790F10193FD859193FF81911F01882309F441
S11317A031C3853239F493FD859193FF81911F01F3
S11317B0853239F4B70190E00E9491105601650119
S11317C0E5CF10E0512C912CFFE1F915D8F08B32C4
S11317D079F038F4803279F08332A1F4F92DF06194
S11317E02EC08D3261F0803369F4292D21602DC023
S11317F0392D3260932E892D8460982E2AC0E92DCC
S1131800E86015C097FC2DC020ED280F2A3088F41D
S113181096FE06C03AE0139F200D1124122F19C022
S11318208AE0589E200D1124522EE92DE0629E2E4E
S113183010C08E3231F496FCE5C2F92DF0649F2E6F
S113184008C08C3621F4292D2068922E02C08836D7
S113185041F4F10193FD859193FF81911F01811161
S1131860B3CF9BEB980F933020F4992D9061805E59
S113187007C09BE9980F933008F066C1992D9F7EAD
S113188096FF16E09F73992E853619F49064992E6D
S113189008C0863621F4392F3068932E02C0111106
S11318A0115097FE07C01C3350F444244394410E56
S11318B027E00BC0183038F027E017E005C027E018
S11318C09CE3492E02C0212F412C560184E0A80E2E
S11318D0B11CF6016081718182819381042DA30181
S11318E00E94A30F6C01F981FC87F0FF02C0F3FF93
S11318F006C091FC06C092FE06C000E205C00DE2DF
S113190003C00BE201C000E08C858C7019F001115A
S11319105AC29BC297FE10C04C0CFC85F4FF04C055
S11319208A81813309F44A94141474F528E0241547
S113193078F588E0482E2CC096FC2AC0812F90E0D0
S11319408C159D059CF03CEFC3163FEFD30674F055
S1131950892D8068982E0AC0E2E0F0E0EC0FFD1FAC
S1131960E10FF11D8081803319F411501111F4CF6E
S113197097FE0EC044244394410E812F90E0C81674
S1131980D9062CF41C1904C04424439401C010E06B
S113199097FE06C01C141D0434F4C601019605C04C
S11319A085E090E002C081E090E0011101961123EE
S11319B031F0212F30E02F5F3F4F820F931F252DF1
S11319C030E08217930714F4581A01C0512C892D62
S11319D0897049F4552039F0B70180E290E00E9403
S11319E091105A94F7CF002329F0B701802F90E08B
S11319F00E94911093FC09C0552039F0B70180E38F
S1131A0090E00E9491105A94F7CF97FE4CC0460183
S1131A10D7FE02C0812C912CC60188199909F301C3
S1131A20E80FF91FFE87ED87960124193109388BD9
S1131A302F87012F10E01195019511093FEF8316AF
S1131A40930629F4B7018EE290E00E949110C81425
S1131A50D9044CF08F8598898815990524F4ED856F
S1131A60FE85818101C080E3F1E08F1A91082D8504
S1131A703E852F5F3F4F3E872D87801691062CF0C1
S1131A80B70190E00E949110D9CFC814D90441F451
S1131A909A81963320F4953319F43C8534FF81E31D
S1131AA0B70190E04EC08A81813319F09C859F7EF6
S1131AB09C87B70190E00E949110111105C094FC1D
S1131AC018C085E690E017C0B7018EE290E00E944E
S1131AD091101E5F82E001E0080FF301E80FF11D91
S1131AE08081B70190E00E949110802F0113F3CF01
S1131AF0E6CF85E490E0B7010E949110D7FC06C0C0
S1131B00C114D10441F4EC85E4FF05C0D194C1941F
S1131B10D1088DE201C08BE2B70190E00E949110E0
S1131B2080E32AE0C216D1042CF08F5FFAE0CF1ACA
S1131B30D108F7CFB70190E00E949110B701C60118
S1131B40C0960E94911054C1833631F0833779F0E6
S1131B50833509F056C020C0560132E0A30EB11CF3
S1131B60F6018081898301E010E0630112C056010F
S1131B70F2E0AF0EB11CF601C080D18096FE03C026
S1131B80612F70E002C06FEF7FEFC6010E948610E4
S1131B908C01F92DFF7714C0560122E0A20EB11C6E
S1131BA0F601C080D18096FE03C0612F70E002C0B0
S1131BB06FEF7FEFC6010E947B108C01F92DF06856
S1131BC09F2EF3FD1AC0852D90E008171907A8F47D
S1131BD0B70180E290E00E9491105A94F4CFF6018C
S1131BE097FC859197FE81916F01B70190E00E9467
S1131BF0911051105A94015011090115110579F7EA
S1131C00F7C0843611F0893661F5560197FE09C094
S1131C1024E0A20EB11CF60160817181828193815E
S1131C200AC0F2E0AF0EB11CF60160817181072E8B
S1131C30000C880B990BF92DFF769F2E97FF09C096
S1131C4090958095709561957F4F8F4F9F4FF06869
S1131C509F2E2AE030E0A3010E94CD10C82EC618A2
S1131C603FC0092D853721F40F7E2AE030E01DC0E6
S1131C70097F8F3691F018F4883559F0C3C0803746
S1131C8019F0883711F0BEC0006104FF09C0046078
S1131C9007C094FE08C0066006C028E030E005C016
S1131CA020E130E002C020E132E0560107FF09C024
S1131CB084E0A80EB11CF601608171818281938158
S1131CC008C0F2E0AF0EB11CF6016081718180E0C2
S1131CD090E0A3010E94CD10C82EC6180F77902E55
S1131CE096FE0BC0092D0E7FC11650F494FE0AC057
S1131CF092FC08C0092D0E7E05C0DC2C092D03C002
S1131D00DC2C01C0D12E04FF0DC0FE01EC0DF11D31
S1131D108081803311F4097E09C002FF06C0D39488
S1131D20D39404C0802F867809F0D39403FD11C0A6
S1131D3000FF06C01C2DD51480F4150D1D190DC00F
S1131D40D51458F4B70180E290E00E949110D39426
S1131D50F7CFD51410F45D1801C0512C04FF10C046
S1131D60B70180E390E00E94911002FF17C001FDCB
S1131D7003C088E790E002C088E590E0B7010CC09A
S1131D80802F867859F001FF02C08BE201C080E207
S1131D9007FD8DE2B70190E00E949110C11638F45E
S1131DA0B70180E390E00E9491101150F7CFCA94DC
S1131DB0F301EC0DF11D8081B70190E00E949110B8
S1131DC0C110F5CF15C0F4E0F51560F584E0581A9C
S1131DD093FE1FC0011127C02C8523FF2AC004EBEA
S1131DE010E0392D3071932EF8018491811124C0B3
S1131DF0552009F4E4CCB70180E290E00E949110F0
S1131E005A94F6CFF7018681978126C08FEF9FEF12
S1131E1023C0B70180E290E00E9491105A945110BF
S1131E20F8CFD8CF512CB701802F90E00E949110A9
S1131E30D3CF08EB10E0D5CF91108052B70190E0DA
S1131E400E9491100F5F1F4FCFCF23E0251510F490
S1131E5083E0BDCF512CC0CF6096E2E10C94880F93
S1131E60A1E21A2EAA1BBB1BFD010DC0AA1FBB1F9A
S1131E70EE1FFF1FA217B307E407F50720F0A21B0C
S1131E80B30BE40BF50B661F771F881F991F1A9479
S1131E9069F760957095809590959B01AC01BD01A3
S1131EA0CF010895A29FB001B39FC001A39F700DFD
S1131EB0811D1124911DB29F700D811D1124911D4E
S1131EC008950E94520FA59F900DB49F900DA49F5A
S1131ED0800D911D112408952F923F924F925F928D
S1131EE06F927F928F929F92AF92BF92CF92DF9226
S1131EF0EF92FF920F931F93CF93DF93CDB7DEB78B
S1131F00CA1BDB0B0FB6F894DEBF0FBECDBF09941E
S1131F102A88398848885F846E847D848C849B8475
S1131F20AA84B984C884DF80EE80FD800C811B8183
S1131F30AA81B981CE0FD11D0FB6F894DEBF0FBEB2
S1131F40CDBFED010895283008F027E03327DA01EA
S1131F50990F311D87FD916000966105710539F473
S1131F6032602E5F3D9330E32A95E1F708959F3F59
S1131F7030F080387105610509F03C5F3C5F3D93AA
S1131F80913008F08068911DDF93CF931F930F93D6
S1131F90FF92EF92192F987F9695E92F9695969533
S1131FA0E90FFF27EA5EFE4F99273327EE24FF242B
S1131FB0A701E70105900894079428F4360FE71E5B
S1131FC0F81E491F511D660F771F881F991F06941D
S1131FD0A1F70590079428F4E70EF81E491F561F31
S1131FE0C11D770F881F991F661F0694A1F70590DE
S1131FF0079428F4F80E491F561FC71FD11D880FD8
S1132000991F661F771F0694A1F70590079420F483
S1132010490F561FC71FD81F990F661F771F881FA8
S11320200694A9F784911095177041F0D695C79539
S113203057954795F794E7941A95C1F7ECEBF0E0C0
S113204068941590159135916591959105907FE26D
S11320507395E118F10A430B560BC90BD009C0F76D
S1132060E10CF11E431F561FC91FD01D7EF47033AF
S113207011F48A95E6CFE894015030F0080F0AF481
S11320800027021708F4202F2395022F7A3328F013
S113209079E37D932A95E9F710C07D932A9589F613
S11320A0069497956795379517951794E118F10A53
S11320B0430B560BC90BD00998F023957E91739569
S11320C07A3308F070E37C932013B8F77E91706143
S11320D07D9330F0839571E37D9370E32A95E1F766
S11320E01124EF90FF900F911F91CF91DF919927C9
S11320F087FD90950895FC01059061507040011092
S1132100D8F7809590958E0F9F1F0895FC0161501C
S1132110704001900110D8F7809590958E0F9F1F05
S113212008950F931F93CF93DF93FB01238121FD28
S113213003C08FEF9FEF2CC022FF16C0468157814A
S1132140248135814217530744F4A081B1819D0154
S11321502F5F3F4F318320838C93268137812F5FFC
S11321603F4F3783268314C08B01EC01FB010084AD
S1132170F185E02D0995892BE1F6D80116968D910C
S11321809C911797019617969C938E931697CE0160
S1132190DF91CF911F910F910895FA01AA2728305A
S11321A051F1203181F1E8946F936E7F6E5F7F4F20
S11321B08F4F9F4FAF4FB1E03ED0B4E03CD0670F9C
S11321C0781F891F9A1FA11D680F791F8A1F911DEF
S11321D0A11D6A0F711D811D911DA11D20D009F43F
S11321E068943F912AE0269F11243019305D319381
S11321F0DEF6CF010895462F4770405D4193B3E06A
S11322000FD0C9F7F6CF462F4F70405D4A3318F010
S1132210495D31FD4052419302D0A9F7EACFB4E0C1
S1132220A6959795879577956795BA95C9F7009779
S11322306105710508959B01AC010A2E069457951A
S1132240479537952795BA95C9F7620F731F841F71
S10D2250951FA01D0895F894FFCF18
S105225A01007D
S9030000FC
